{
  "contractName": "TestBed",
  "abi": [
    {
      "inputs": [],
      "payable": false,
      "stateMutability": "nonpayable",
      "type": "constructor"
    },
    {
      "anonymous": false,
      "inputs": [
        {
          "indexed": false,
          "name": "",
          "type": "uint256"
        }
      ],
      "name": "TestEventWithUint",
      "type": "event"
    },
    {
      "anonymous": false,
      "inputs": [
        {
          "indexed": false,
          "name": "",
          "type": "address"
        }
      ],
      "name": "TestEventWithAddress",
      "type": "event"
    },
    {
      "constant": false,
      "inputs": [
        {
          "name": "addr",
          "type": "address"
        },
        {
          "name": "str",
          "type": "string"
        }
      ],
      "name": "addAddressMapping",
      "outputs": [],
      "payable": false,
      "stateMutability": "nonpayable",
      "type": "function"
    },
    {
      "constant": true,
      "inputs": [
        {
          "name": "addr",
          "type": "address"
        }
      ],
      "name": "getAddressMappingString",
      "outputs": [
        {
          "name": "",
          "type": "string"
        }
      ],
      "payable": false,
      "stateMutability": "view",
      "type": "function"
    },
    {
      "constant": false,
      "inputs": [
        {
          "name": "sometext",
          "type": "string"
        }
      ],
      "name": "updateStructText",
      "outputs": [],
      "payable": false,
      "stateMutability": "nonpayable",
      "type": "function"
    },
    {
      "constant": true,
      "inputs": [],
      "name": "getStructText",
      "outputs": [
        {
          "name": "",
          "type": "string"
        }
      ],
      "payable": false,
      "stateMutability": "view",
      "type": "function"
    },
    {
      "constant": true,
      "inputs": [
        {
          "name": "value",
          "type": "uint256"
        }
      ],
      "name": "getMappedBool",
      "outputs": [
        {
          "name": "",
          "type": "bool"
        }
      ],
      "payable": false,
      "stateMutability": "view",
      "type": "function"
    },
    {
      "constant": false,
      "inputs": [
        {
          "name": "value",
          "type": "bool"
        }
      ],
      "name": "modifyBool",
      "outputs": [],
      "payable": false,
      "stateMutability": "nonpayable",
      "type": "function"
    },
    {
      "constant": true,
      "inputs": [],
      "name": "getBool",
      "outputs": [
        {
          "name": "",
          "type": "bool"
        }
      ],
      "payable": false,
      "stateMutability": "view",
      "type": "function"
    },
    {
      "constant": false,
      "inputs": [
        {
          "name": "value",
          "type": "int8"
        }
      ],
      "name": "modifyint8",
      "outputs": [],
      "payable": false,
      "stateMutability": "nonpayable",
      "type": "function"
    },
    {
      "constant": true,
      "inputs": [],
      "name": "getint8",
      "outputs": [
        {
          "name": "",
          "type": "int8"
        }
      ],
      "payable": false,
      "stateMutability": "view",
      "type": "function"
    },
    {
      "constant": false,
      "inputs": [
        {
          "name": "value",
          "type": "int256"
        }
      ],
      "name": "modifyint256",
      "outputs": [],
      "payable": false,
      "stateMutability": "nonpayable",
      "type": "function"
    },
    {
      "constant": true,
      "inputs": [],
      "name": "getint256",
      "outputs": [
        {
          "name": "",
          "type": "int256"
        }
      ],
      "payable": false,
      "stateMutability": "view",
      "type": "function"
    },
    {
      "constant": false,
      "inputs": [
        {
          "name": "value",
          "type": "uint8"
        }
      ],
      "name": "modifyuint8",
      "outputs": [],
      "payable": false,
      "stateMutability": "nonpayable",
      "type": "function"
    },
    {
      "constant": true,
      "inputs": [],
      "name": "getuint8",
      "outputs": [
        {
          "name": "",
          "type": "uint8"
        }
      ],
      "payable": false,
      "stateMutability": "view",
      "type": "function"
    },
    {
      "constant": false,
      "inputs": [
        {
          "name": "value",
          "type": "uint256"
        }
      ],
      "name": "modifyuint256",
      "outputs": [],
      "payable": false,
      "stateMutability": "nonpayable",
      "type": "function"
    },
    {
      "constant": true,
      "inputs": [],
      "name": "getuint256",
      "outputs": [
        {
          "name": "",
          "type": "uint256"
        }
      ],
      "payable": false,
      "stateMutability": "view",
      "type": "function"
    },
    {
      "constant": false,
      "inputs": [
        {
          "name": "value",
          "type": "bytes1"
        }
      ],
      "name": "modifybytes1",
      "outputs": [],
      "payable": false,
      "stateMutability": "nonpayable",
      "type": "function"
    },
    {
      "constant": true,
      "inputs": [],
      "name": "getbytes1",
      "outputs": [
        {
          "name": "",
          "type": "bytes1"
        }
      ],
      "payable": false,
      "stateMutability": "view",
      "type": "function"
    },
    {
      "constant": false,
      "inputs": [
        {
          "name": "value",
          "type": "bytes32"
        }
      ],
      "name": "modifybytes32",
      "outputs": [],
      "payable": false,
      "stateMutability": "nonpayable",
      "type": "function"
    },
    {
      "constant": true,
      "inputs": [],
      "name": "getbytes32",
      "outputs": [
        {
          "name": "",
          "type": "bytes32"
        }
      ],
      "payable": false,
      "stateMutability": "view",
      "type": "function"
    },
    {
      "constant": false,
      "inputs": [
        {
          "name": "value",
          "type": "bytes"
        }
      ],
      "name": "modifybytes",
      "outputs": [],
      "payable": false,
      "stateMutability": "nonpayable",
      "type": "function"
    },
    {
      "constant": true,
      "inputs": [],
      "name": "getRandomBytes",
      "outputs": [
        {
          "name": "",
          "type": "bytes"
        }
      ],
      "payable": false,
      "stateMutability": "view",
      "type": "function"
    },
    {
      "constant": true,
      "inputs": [
        {
          "name": "addr",
          "type": "address"
        }
      ],
      "name": "getArbitraryAddressBalance",
      "outputs": [
        {
          "name": "",
          "type": "uint256"
        }
      ],
      "payable": false,
      "stateMutability": "view",
      "type": "function"
    },
    {
      "constant": true,
      "inputs": [],
      "name": "getSenderAddressBalance",
      "outputs": [
        {
          "name": "",
          "type": "uint256"
        }
      ],
      "payable": false,
      "stateMutability": "view",
      "type": "function"
    },
    {
      "constant": false,
      "inputs": [
        {
          "name": "value",
          "type": "uint256"
        },
        {
          "name": "other",
          "type": "uint256"
        }
      ],
      "name": "testOverload",
      "outputs": [
        {
          "name": "",
          "type": "uint256"
        }
      ],
      "payable": false,
      "stateMutability": "nonpayable",
      "type": "function"
    },
    {
      "constant": false,
      "inputs": [
        {
          "name": "value",
          "type": "uint8"
        },
        {
          "name": "other",
          "type": "uint256"
        }
      ],
      "name": "testOverload",
      "outputs": [
        {
          "name": "",
          "type": "uint256"
        }
      ],
      "payable": false,
      "stateMutability": "nonpayable",
      "type": "function"
    },
    {
      "constant": false,
      "inputs": [
        {
          "name": "value",
          "type": "uint256"
        },
        {
          "name": "other",
          "type": "uint8"
        }
      ],
      "name": "testOverload",
      "outputs": [
        {
          "name": "",
          "type": "uint256"
        }
      ],
      "payable": false,
      "stateMutability": "nonpayable",
      "type": "function"
    },
    {
      "constant": false,
      "inputs": [
        {
          "name": "value",
          "type": "uint256"
        }
      ],
      "name": "testSpawnEventUint",
      "outputs": [],
      "payable": false,
      "stateMutability": "nonpayable",
      "type": "function"
    },
    {
      "constant": false,
      "inputs": [],
      "name": "testSpawnEventWithAddress",
      "outputs": [],
      "payable": false,
      "stateMutability": "nonpayable",
      "type": "function"
    }
  ],
  "bytecode": "0x60806040523480156200001157600080fd5b506060600080600060016000806101000a81548160ff0219169083151502179055507fffffffffffffffffffffffffffffffffffffffffffffffffffffffffffffffef600060016101000a81548160ff021916908360000b60ff1602179055507ffffffffffffffffffffffffffffffffffffffffffffffffffffffffffe4f498e6001819055506021600260006101000a81548160ff021916908360ff16021790555062343d9e60038190555060087f010000000000000000000000000000000000000000000000000000000000000002600460006101000a81548160ff02191690837f010000000000000000000000000000000000000000000000000000000000000090040217905550640119901d506001026005816000191690555060586040519080825280601f01601f191660200182016040528015620001645781602001602082028038833980820191505090505b509350600092505b8351831015620001f35760018301839060020a90049150817f0100000000000000000000000000000000000000000000000000000000000000028484815181101515620001b557fe5b9060200101907effffffffffffffffffffffffffffffffffffffffffffffffffffffffffffff1916908160001a90535082806001019350506200016c565b83600690805190602001906200020b929190620003b7565b50606060405190810160405280602f81526020016000151581526020016040805190810160405280600c81526020017f7468697320697320746578740000000000000000000000000000000000000000815250815250600b6000820151816000015560208201518160010160006101000a81548160ff0219169083151502179055506040820151816002019080519060200190620002ab9291906200043e565b50905050606060405190810160405280602881526020017f5468697320697320612064656661756c7420737472696e6720666f7220736f6d81526020017f6520726561736f6e0000000000000000000000000000000000000000000000008152506007908051906020019062000323929190620004c5565b506002600a60006101000a81548160ff021916908360038111156200034457fe5b0217905550600090505b6099811015620003ad576004818115156200036557fe5b066003828115156200037357fe5b06146008600083815260200190815260200160002060006101000a81548160ff02191690831515021790555080806001019150506200034e565b5050505062000574565b828054600181600116156101000203166002900490600052602060002090601f016020900481019282601f10620003fa57805160ff19168380011785556200042b565b828001600101855582156200042b579182015b828111156200042a5782518255916020019190600101906200040d565b5b5090506200043a91906200054c565b5090565b828054600181600116156101000203166002900490600052602060002090601f016020900481019282601f106200048157805160ff1916838001178555620004b2565b82800160010185558215620004b2579182015b82811115620004b157825182559160200191906001019062000494565b5b509050620004c191906200054c565b5090565b828054600181600116156101000203166002900490600052602060002090601f016020900481019282601f106200050857805160ff191683800117855562000539565b8280016001018555821562000539579182015b82811115620005385782518255916020019190600101906200051b565b5b5090506200054891906200054c565b5090565b6200057191905b808211156200056d57600081600090555060010162000553565b5090565b90565b61111d80620005846000396000f30060806040526004361061016a576000357c0100000000000000000000000000000000000000000000000000000000900463ffffffff1680630fd69d441461016f57806312a7b914146101a0578063153edfe9146101cf57806315f44826146101ff57806316fbe611146102885780631f16009d146102b357806320c86b3c146102de5780632e06ef8a1461032d57806345323d391461035c57806352888e91146104185780635916c191146104a857806359e4849d146104f35780635a24269f1461055c5780637eaf1626146105aa5780639116c5df146105c15780639adf7614146105f25780639e4ef9e214610649578063a08bfffa14610697578063a0fc7a28146106c8578063aad69366146106f3578063ac34c1eb14610720578063ba23ec8e14610753578063bc1d400b146107e3578063cf3a2a6614610810578063d63b777d1461083d578063dc3d3159146108a6578063e4ffd13b146108d6578063e6f2f9851461091b575b600080fd5b34801561017b57600080fd5b5061019e600480360381019080803560001916906020019092919050505061098a565b005b3480156101ac57600080fd5b506101b5610998565b604051808215151515815260200191505060405180910390f35b3480156101db57600080fd5b506101fd600480360381019080803560000b90602001909291905050506109ae565b005b34801561020b57600080fd5b50610286600480360381019080803573ffffffffffffffffffffffffffffffffffffffff169060200190929190803590602001908201803590602001908080601f01602080910402602001604051908101604052809392919081815260200183838082843782019150505050505091929192905050506109cf565b005b34801561029457600080fd5b5061029d610a27565b6040518082815260200191505060405180910390f35b3480156102bf57600080fd5b506102c8610a31565b6040518082815260200191505060405180910390f35b3480156102ea57600080fd5b5061032b60048036038101908080357effffffffffffffffffffffffffffffffffffffffffffffffffffffffffffff19169060200190929190505050610a3b565b005b34801561033957600080fd5b5061035a600480360381019080803515159060200190929190505050610a79565b005b34801561036857600080fd5b5061039d600480360381019080803573ffffffffffffffffffffffffffffffffffffffff169060200190929190505050610a95565b6040518080602001828103825283818151815260200191508051906020019080838360005b838110156103dd5780820151818401526020810190506103c2565b50505050905090810190601f16801561040a5780820380516001836020036101000a031916815260200191505b509250505060405180910390f35b34801561042457600080fd5b5061042d610b76565b6040518080602001828103825283818151815260200191508051906020019080838360005b8381101561046d578082015181840152602081019050610452565b50505050905090810190601f16801561049a5780820380516001836020036101000a031916815260200191505b509250505060405180910390f35b3480156104b457600080fd5b506104dd6004803603810190808035906020019092919080359060200190929190505050610c1b565b6040518082815260200191505060405180910390f35b3480156104ff57600080fd5b5061055a600480360381019080803590602001908201803590602001908080601f0160208091040260200160405190810160405280939291908181526020018383808284378201915050505050509192919290505050610c2d565b005b34801561056857600080fd5b50610594600480360381019080803560ff16906020019092919080359060200190929190505050610c47565b6040518082815260200191505060405180910390f35b3480156105b657600080fd5b506105bf610c6d565b005b3480156105cd57600080fd5b506105d6610cd2565b604051808260000b60000b815260200191505060405180910390f35b3480156105fe57600080fd5b50610633600480360381019080803573ffffffffffffffffffffffffffffffffffffffff169060200190929190505050610ce8565b6040518082815260200191505060405180910390f35b34801561065557600080fd5b5061068160048036038101908080359060200190929190803560ff169060200190929190505050610d09565b6040518082815260200191505060405180910390f35b3480156106a357600080fd5b506106ac610d2f565b604051808260ff1660ff16815260200191505060405180910390f35b3480156106d457600080fd5b506106dd610d46565b6040518082815260200191505060405180910390f35b3480156106ff57600080fd5b5061071e60048036038101908080359060200190929190505050610d65565b005b34801561072c57600080fd5b50610735610d6f565b60405180826000191660001916815260200191505060405180910390f35b34801561075f57600080fd5b50610768610d79565b6040518080602001828103825283818151815260200191508051906020019080838360005b838110156107a857808201518184015260208101905061078d565b50505050905090810190601f1680156107d55780820380516001836020036101000a031916815260200191505b509250505060405180910390f35b3480156107ef57600080fd5b5061080e60048036038101908080359060200190929190505050610e1b565b005b34801561081c57600080fd5b5061083b60048036038101908080359060200190929190505050610e25565b005b34801561084957600080fd5b506108a4600480360381019080803590602001908201803590602001908080601f0160208091040260200160405190810160405280939291908181526020018383808284378201915050505050509192919290505050610e5f565b005b3480156108b257600080fd5b506108d4600480360381019080803560ff169060200190929190505050610ece565b005b3480156108e257600080fd5b5061090160048036038101908080359060200190929190505050610eec565b604051808215151515815260200191505060405180910390f35b34801561092757600080fd5b50610930610f16565b60405180827effffffffffffffffffffffffffffffffffffffffffffffffffffffffffffff19167effffffffffffffffffffffffffffffffffffffffffffffffffffffffffffff1916815260200191505060405180910390f35b806005816000191690555050565b60008060009054906101000a900460ff16905090565b80600060016101000a81548160ff021916908360000b60ff16021790555050565b80600960008473ffffffffffffffffffffffffffffffffffffffff1673ffffffffffffffffffffffffffffffffffffffff1681526020019081526020016000209080519060200190610a22929190610f4c565b505050565b6000600154905090565b6000600354905090565b80600460006101000a81548160ff02191690837f01000000000000000000000000000000000000000000000000000000000000009004021790555050565b806000806101000a81548160ff02191690831515021790555050565b6060600960008373ffffffffffffffffffffffffffffffffffffffff1673ffffffffffffffffffffffffffffffffffffffff1681526020019081526020016000208054600181600116156101000203166002900480601f016020809104026020016040519081016040528092919081815260200182805460018160011615610100020316600290048015610b6a5780601f10610b3f57610100808354040283529160200191610b6a565b820191906000526020600020905b815481529060010190602001808311610b4d57829003601f168201915b50505050509050919050565b6060600b6002018054600181600116156101000203166002900480601f016020809104026020016040519081016040528092919081815260200182805460018160011615610100020316600290048015610c115780601f10610be657610100808354040283529160200191610c11565b820191906000526020600020905b815481529060010190602001808311610bf457829003601f168201915b5050505050905090565b60008160038190555082905092915050565b8060069080519060200190610c43929190610fcc565b5050565b600082600260006101000a81548160ff021916908360ff16021790555081905092915050565b7f156f8086171f33f78212a369ec30f69420503c1c9506423ef87d7a89db1625ff33604051808273ffffffffffffffffffffffffffffffffffffffff1673ffffffffffffffffffffffffffffffffffffffff16815260200191505060405180910390a1565b60008060019054906101000a900460000b905090565b60008173ffffffffffffffffffffffffffffffffffffffff16319050919050565b600081600260006101000a81548160ff021916908360ff16021790555082905092915050565b6000600260009054906101000a900460ff16905090565b60003373ffffffffffffffffffffffffffffffffffffffff1631905090565b8060038190555050565b6000600554905090565b606060068054600181600116156101000203166002900480601f016020809104026020016040519081016040528092919081815260200182805460018160011615610100020316600290048015610e115780601f10610de657610100808354040283529160200191610e11565b820191906000526020600020905b815481529060010190602001808311610df457829003601f168201915b5050505050905090565b8060018190555050565b7fda1e24eacca29825268ad72fe36aef58ca227c85e815132bb00a7e3023dd8a1b816040518082815260200191505060405180910390a150565b606060405190810160405280602f815260200160001515815260200182815250600b6000820151816000015560208201518160010160006101000a81548160ff0219169083151502179055506040820151816002019080519060200190610ec792919061104c565b5090505050565b80600260006101000a81548160ff021916908360ff16021790555050565b60006008600083815260200190815260200160002060009054906101000a900460ff169050919050565b6000600460009054906101000a90047f010000000000000000000000000000000000000000000000000000000000000002905090565b828054600181600116156101000203166002900490600052602060002090601f016020900481019282601f10610f8d57805160ff1916838001178555610fbb565b82800160010185558215610fbb579182015b82811115610fba578251825591602001919060010190610f9f565b5b509050610fc891906110cc565b5090565b828054600181600116156101000203166002900490600052602060002090601f016020900481019282601f1061100d57805160ff191683800117855561103b565b8280016001018555821561103b579182015b8281111561103a57825182559160200191906001019061101f565b5b50905061104891906110cc565b5090565b828054600181600116156101000203166002900490600052602060002090601f016020900481019282601f1061108d57805160ff19168380011785556110bb565b828001600101855582156110bb579182015b828111156110ba57825182559160200191906001019061109f565b5b5090506110c891906110cc565b5090565b6110ee91905b808211156110ea5760008160009055506001016110d2565b5090565b905600a165627a7a72305820560d1e20eda13c354809398bf0938fc311be9766d73a0824237c17d9ddb2cdb80029",
  "source": "pragma solidity ^0.4.23;\r\n\r\ncontract TestBed\r\n{\r\n  // Simple enum for test\r\n  enum TestEnumValues { EnumValue1, EnumValue2, EnumValue3, EnumValue4 }\r\n\r\n  // Simple struct for test\r\n  struct TestStruct {\r\n    uint randomNumber;\r\n    bool randomBoolean;\r\n    string randomText;\r\n  }\r\n\r\n  // Storing all base types for tests\r\n  bool testBool;\r\n  int8 testInt8;\r\n  int256 testInt256;\r\n  uint8 testUint8;\r\n  uint256 testUint256;\r\n  bytes1 testBytes1;\r\n  bytes32 testBytes32;\r\n  bytes testRandomBytes;\r\n  string testString;\r\n  mapping (uint => bool) testMapping;\r\n  mapping (address => string) testAddressMapping;\r\n\r\n  // Enum and struct\r\n  TestEnumValues testEnumValue;\r\n  TestStruct testStruct;\r\n\r\n  constructor() public {\r\n    testBool = true;\r\n    testInt8 = -17;\r\n    testInt256 = -28358258;\r\n    testUint8 = 33;\r\n    testUint256 = 3423646;\r\n    testBytes1 = bytes1(8);\r\n    testBytes32 = bytes32(4723842384);\r\n    bytes memory tempBytes = new bytes(88);\r\n    for(uint i = 0; i < tempBytes.length; i++) {\r\n      uint someByte = i >> (i + 1);\r\n      tempBytes[i] = bytes1(someByte);\r\n    }\r\n    testRandomBytes = tempBytes;\r\n\r\n    testStruct = TestStruct(47, false, \"this is text\");\r\n    testString = \"This is a default string for some reason\";\r\n    testEnumValue = TestEnumValues.EnumValue3;\r\n\r\n    for (uint j = 0; j < 153; j++){\r\n      testMapping[j] = ((j % 3) == (j % 4));\r\n    }\r\n  }\r\n\r\n  function addAddressMapping(address addr, string str) public {\r\n    testAddressMapping[addr] = str;\r\n  }\r\n\r\n  function getAddressMappingString(address addr) public view returns (string) {\r\n    return testAddressMapping[addr];\r\n  }\r\n\r\n  function updateStructText(string sometext) public {\r\n    testStruct = TestStruct(47, false, sometext);\r\n  }\r\n  \r\n  function getStructText() public view returns (string) {\r\n    return testStruct.randomText;\r\n  }\r\n\r\n  function getMappedBool(uint value) public view returns(bool) {\r\n    return testMapping[value];\r\n  }\r\n\r\n  function modifyBool(bool value) public {\r\n    testBool = value;\r\n  }\r\n\r\n  function getBool() public view  returns (bool) {\r\n    return testBool;\r\n  }\r\n\r\n  function modifyint8(int8 value) public {\r\n    testInt8 = value;\r\n  }\r\n\r\n  function getint8() public view  returns (int8) {\r\n    return testInt8;\r\n  }\r\n\r\n  function modifyint256(int256 value) public {\r\n    testInt256 = value;\r\n  }\r\n\r\n  function getint256() public view  returns (int256) {\r\n    return testInt256;\r\n  }\r\n\r\n  function modifyuint8(uint8 value) public {\r\n    testUint8 = value;\r\n  }\r\n\r\n  function getuint8() public view  returns (uint8) {\r\n    return testUint8;\r\n  }\r\n\r\n  function modifyuint256(uint256 value) public {\r\n    testUint256 = value;\r\n  }\r\n\r\n  function getuint256() public view  returns (uint256) {\r\n    return testUint256;\r\n  }\r\n\r\n  function modifybytes1(bytes1 value) public {\r\n    testBytes1 = value;\r\n  }\r\n\r\n  function getbytes1() public view  returns (bytes1) {\r\n    return testBytes1;\r\n  }\r\n\r\n  function modifybytes32(bytes32 value) public {\r\n    testBytes32 = value;\r\n  }\r\n\r\n  function getbytes32() public view  returns (bytes32) {\r\n    return testBytes32;\r\n  }\r\n\r\n  function modifybytes(bytes value) public {\r\n    testRandomBytes = value;\r\n  }\r\n\r\n  function getRandomBytes() public view  returns (bytes) {\r\n    return testRandomBytes;\r\n  }\r\n\r\n  function getArbitraryAddressBalance(address addr) public view returns (uint) {\r\n    return addr.balance;\r\n  }\r\n\r\n  function getSenderAddressBalance() public view returns (uint) {\r\n    return msg.sender.balance;\r\n  }\r\n\r\n  function testOverload(uint256 value, uint256 other) public returns (uint) {\r\n    testUint256 = other;\r\n    return value;\r\n  }\r\n\r\n  function testOverload(uint256 value, uint8 other) public returns (uint) {\r\n    testUint8 = other;\r\n    return value;\r\n  }\r\n\r\n  function testOverload(uint8 value, uint256 other) public returns (uint) {\r\n    testUint8 = value;\r\n    return other;\r\n  }\r\n\r\n  // events\r\n  event TestEventWithUint(uint);\r\n  event TestEventWithAddress(address);\r\n\r\n  function testSpawnEventUint(uint value) public {\r\n    emit TestEventWithUint(value);\r\n  }\r\n\r\n  function testSpawnEventWithAddress() public {\r\n    emit TestEventWithAddress(msg.sender);\r\n  }\r\n}\r\n",
  "sourcePath": "src\\TestBed.sol",
  "compiler": {
    "name": "solc",
    "version": "0.4.24+commit.e67f0147.Emscripten.clang"
  },
  "schemaVersion": "2.0.1",
  "updatedAt": "2018-10-30T22:38:29.608Z"
}